:020000040800F2
:1000000068050020B53500089534000897340008CD
:10001000993400089B3400089D340008000000005B
:100020000000000000000000000000009F340008F5
:10003000A134000800000000A3340008A534000823
:10004000D9350008DD350008E1350008E535000840
:10005000E9350008ED350008F1350008F5350008F0
:10006000F9350008FD35000801360008053600089E
:10007000093600080D360008AD340008B734000812
:100080001136000815360008193600081D3600081C
:100090002136000825360008293600082D360008CC
:1000A0003136000835360008393600083D3600087C
:1000B0004136000845360008493600084D3600082C
:1000C0005136000855360008593600085D360008DC
:1000D00061360008C134000865360008693600083A
:1000E0006D36000871360008753600080000000003
:1000F0000000000000000000000000000000000000
:1001000000000000000000000000000000000000EF
:1001100000000000000000000000000000000000DF
:1001200000000000000000000000000000000000CF
:1010000000080008000800000100000010B50400FE
:10101000002C01D1012033E0A0690028FFD194F811
:101020003900002805D1002084F83800200000F0A5
:101030000AFC242084F839002068C06830F400508D
:101040002168C860200000F0D0FA2068006930F400
:101050009040216808612068406930F02A002168CA
:1010600048612068C06850F400502168C8600020C2
:10107000E063202084F83900202084F83A00002022
:1010800010BD73B50400150094F83900202841D133
:101090000198002802D0ADB2002D01D101203AE024
:1010A00094F83800012801D1022034E0012084F8AE
:1010B000380001982062A584E5840020E0632120A7
:1010C00084F839000FF2A920216B88620FF2D52035
:1010D000216BC8620FF23130216B08630020216B55
:1010E000486301A80600ADB22B002068021D3168DC
:1010F000206B00F07BFC7FF040002168086000203E
:1011000084F838002068406950F080002168486108
:10111000002000E0022076BD73B50400150094F8AD
:101120003A00202851D10198002802D0ADB2002DFC
:1011300001D101204AE094F83800012801D10220B1
:1011400044E0012084F838000198A062A5850020C1
:10115000E063222084F83A000FF25920616B886224
:101160000FF29520616BC8620FF29D20616B0863DE
:101170000020616B486301A80600ADB22B00326805
:101180002068011D606B00F031FC00200090206899
:10119000006800902068406800900099002084F862
:1011A00038002068C06850F480702268D0602068E1
:1011B000406950F00100226850612068406950F099
:1011C000400022685061002000E0022076BD10B58A
:1011D00004002068C06830F490702168C8602068FE
:1011E0004069400840002168486120684069400625
:1011F0000ED52068406930F0400021684861606B7E
:10120000002805D00020616B4863606B00F03AFC59
:101210000020E085202084F83A00002010BD2DE950
:10122000F8430400206805682068C668206847699C
:101230005FF000085FF0000915F00F008046B8F17C
:10124000000F07D1A80605D5B00603D5200000F091
:1012500076F985E0B8F1000F72D0F80702D416F4E1
:10126000907F6DD015F00100C0B2002805D0F005C8
:1012700003D5E06B50F00100E063680708D517F074
:101280000100C0B2002803D0E06B50F00200E06320
:10129000A80708D517F00100C0B2002803D0E06B02
:1012A00050F00400E063280708D517F00100C0B231
:1012B000002803D0E06B50F00800E063E06B0028EA
:1012C0003DD0A80604D5B00602D5200000F037F9BD
:1012D00020684069800910F001008146E06B00073A
:1012E00002D4B9F1000F25D0200000F0C5F8206825
:1012F000406940061AD52068406930F040002168F6
:101300004861606B00280DD00FF28D10616B48634F
:10131000606B00F0D2FB002811D0606B616B496BF1
:1013200088470CE0200000F021F808E0200000F0E1
:101330001DF804E0200000F019F80020E0630FE041
:10134000280605D5300603D5200000F0B1F807E0E7
:10135000680605D5700603D5200000F0E0F8FFE729
:10136000BDE8F183704770477047704770470000D1
:1013700038B50400656A2068006880060ED4002035
:10138000E8842868406930F080002968486128684E
:10139000C06850F040002968C86002E02800FFF7EC
:1013A000E1FF31BD38B50400656A2800FFF7DBFFB7
:1013B00031BD000038B50400656A20680068800609
:1013C00016D40020E8852868C06830F48070296849
:1013D000C86028684069400840002968486128685A
:1013E000406930F0400029684861202085F83A00C3
:1013F0002800FFF7B9FF31BD38B50400656A280041
:10140000FFF7B3FF31BD000070B504000025666A28
:1014100030684069C00910F00100050096F83900F5
:10142000212806D1002D04D00020F084300000F0E7
:1014300019F830684069800910F00100050096F83D
:101440003A00222806D1002D04D00020F08530007B
:1014500000F012F8F06B50F01000F0633000FFF76E
:1014600085FF70BD0168C96831F0C0010268D160B4
:10147000202180F8391070470168C96831F49071F3
:101480000268D160016849694908490002685161F0
:10149000202180F83A10704738B50400656A0020B2
:1014A000E8850020E8842800FFF760FF31BD0000D8
:1014B000010091F8390021282FD18868B0F5805FAC
:1014C00011D1086A02001088C005C00D0B68586071
:1014D0000869002803D1086A801C086209E0086ACC
:1014E000401C086205E0086A431C0B6200780B6828
:1014F0005860C88C401EC88480B200280BD1086890
:10150000C06830F080000B68D8600868C06850F090
:1015100040000B68D860002000E00220704710B542
:1015200004002068C06830F040002168C8602020B6
:1015300084F839002000FFF715FF002010BD38B5F2
:10154000040094F83A0022284DD1A068B0F5805FDD
:1015500015D1A06A05002069002808D120684068DC
:10156000C005C00D2880A06A801CA06219E0206818
:101570004068C0B22880A06A401CA06211E02069C7
:10158000002806D1A06A411CA16221684968017047
:1015900007E0A06A411CA1622168496811F07F013F
:1015A0000170E08D401EE08580B2002819D12068CE
:1015B000C06830F020002168C8602068C06830F43E
:1015C00080702168C8602068406940084000216838
:1015D0004861202084F83A002000FFF7C5FE002073
:1015E00002E0002000E0022032BD2DE9F8430400B3
:1015F00000252068006930F44050E1680843216804
:101600000861A068216908436169084305432068AF
:10161000C0685C49084028432168C8602068406968
:1016200030F44070A1690843216848612068564938
:10163000884252D100F0C5FE814600F0C2FE8046CD
:1016400000F0BFFE070000F0BCFE060000F0B9FE8F
:10165000192101FB09F162689200B1FBF2F16422E9
:10166000B1FBF2F1192202FB08F263689B00B2FBA6
:10167000F3F2192303FB07F36768BF00B3FBF7F32B
:101680006427B3FBF7F3642707FB132212013232FE
:101690006423B2FBF3F212F0F00212EB01111922F3
:1016A00002FB06F263689B00B2FBF3F21923584376
:1016B00063689B00B0FBF3F06423B0FBF3F064239A
:1016C00003FB1020000132306422B0FBF2F010F076
:1016D0000F0040182168886051E000F067FE8146E5
:1016E00000F064FE804600F061FE070000F05EFE40
:1016F000060000F05BFE192101FB09F1626892000F
:10170000B1FBF2F16422B1FBF2F1192202FB08F203
:1017100063689B00B2FBF3F2192303FB07F36768CE
:10172000BF00B3FBF7F36427B3FBF7F3642707FBB2
:101730001322120132326423B2FBF3F212F0F002F0
:1017400012EB0111192202FB06F263689B00B2FB47
:10175000F3F21923584363689B00B0FBF3F0642352
:10176000B0FBF3F0642303FB10200001323064224D
:10177000B0FBF2F010F00F00401821688860BDE85F
:10178000F1830000F3E9FFFF0038014081B07348A6
:10179000006850F00100714908607048006810F05E
:1017A0000100009000986E49096851F080516C4A20
:1017B00011606B49096811F0805100910099694BE3
:1017C0001B681A0032F0E06252F00072654B1A603A
:1017D00001B0704770B586B0040001A8102100F078
:1017E00031FE2068604988422BD15C48006850F483
:1017F00080505A4908605948006810F480500090A1
:10180000009D5648006850F0040054490860534851
:10181000006810F004000090009EB02001900220AB
:1018200002900320049001A9504800F025FE4020BA
:101830000190002002900020039001A94B4800F085
:101840001BFE06B070BD70B586B0040001A8102163
:1018500000F0F8FD2068464988427CD13F48006886
:1018600050F480403D4908603C48006810F48040D6
:101870000090009D3948006850F004003749086026
:101880003648006810F004000090009E4FF400708D
:101890000190022002900320049001A9334800F037
:1018A000EBFD4FF480600190002002900020039037
:1018B00001A92E4800F0E0FD2E482F4908600020C5
:1018C0002D49486000202C49886080202A49C86042
:1018D0000020294908610020274948612020264925
:1018E00088614FF440502449C861234800F04AF809
:1018F000002801D001F0AAF81F4860631E48446226
:101900001E481F49086010201D49486000201C49DE
:10191000886080201A49C8600020194908610020A9
:101920001749486100201649886100201449C861A0
:10193000134800F027F8002801D001F087F810487C
:1019400020630F48446200220021252001F0FEF8A8
:10195000252001F00EF906B070BD000018100240FD
:101960001C1002400400014000300140000801400A
:10197000003801405800024064000020440002404A
:10198000A800002001000022002901D101202CE044
:101990000868DFF8443318181423B0FBF3F0800014
:1019A0000864DFF83803C863022081F82100086862
:1019B000006802006FF30D1248688B681843CB680B
:1019C00018430B6918434B6918438B691843CB695B
:1019D000184302430868026000208863012081F8F0
:1019E0002100002081F82000002070472DE9F041FF
:1019F00004000D0016001F005FF0000894F820009E
:101A0000012801D102203BE0012084F8200094F855
:101A1000210001282DD1022084F821000020A0639C
:101A20002068006840084000216808603B003200E0
:101A30002900200000F062F9E06A002806D0206842
:101A4000006850F00E00216808600BE02068006814
:101A500030F00400216808602068006850F00A0037
:101A6000216808602068006850F001002168086063
:101A700004E0002084F82000022080464046C0B2E6
:101A8000BDE8F081010000200A68126832F00E0201
:101A90000B681A600A681268520852000B681A60D4
:101AA00001220B6C9A40CB6B5A60012281F82120F5
:101AB000002281F82020C0B2704738B5040000250C
:101AC00094F82100022804D00420A063012005001E
:101AD0004AE02068006830F00E0021680860206845
:101AE000006840084000216808602068DFF8F011B5
:101AF000884201D1012028E02068DFF8E8118842FF
:101B000001D1102021E02068DFF8DC11884202D1E9
:101B10004FF4807019E02068DFF8D011884202D1BC
:101B20004FF4805011E02068DFF8C411884202D1E0
:101B30005FF4803009E02068DFF8B811884202D1F4
:101B40005FF4801001E05FF08070DFF8AC11086096
:101B5000012084F82100002084F82000606B002818
:101B600002D02000616B88472800C0B232BD70B53A
:101B70000400E06B0568206806680420216C88403A
:101B800005423ED070073CD520680068800605D429
:101B90002068006830F0040021680860206850491F
:101BA000884201D1042023E020684E49884201D1B7
:101BB00040201DE020684C49884202D14FF48060EB
:101BC00016E020684949884202D14FF480400FE076
:101BD00020684749884202D15FF4802008E02068ED
:101BE0004449884202D15FF4800001E05FF08060E8
:101BF00041490860E06A00286DD02000E16A88470A
:101C000069E00220216C8840054244D0B00742D5EB
:101C100020680068800608D42068006830F00A0058
:101C200021680860012084F8210020682C4988423E
:101C300001D1022023E020682A49884201D12020D6
:101C40001DE020682849884202D14FF4007016E058
:101C500020682649884202D14FF400500FE02068E6
:101C60002349884202D15FF4003008E0206821490E
:101C7000884202D15FF4001001E05FF000701E495D
:101C80000860002084F82000A06A002823D02000EB
:101C9000A16A88471FE00820216C884005421AD0BD
:101CA000300718D52068006830F00E002168086001
:101CB0000120216C8840E16B48600120A063012075
:101CC00084F82100002084F82000206B002802D036
:101CD0002000216B884770BDF8FFFDBF0000024067
:101CE000080002401C000240300002404400024054
:101CF000580002406C0002400400024030B401244D
:101D0000056CAC40C56B6C60046863604468102C63
:101D100004D10468A2600468E16003E00468A16083
:101D20000468E26030BC704770B582B004000025E2
:101D30002078C00740F18480DFF8C806006810F002
:101D40000C0004280BD0DFF8BC06006810F00C0073
:101D500008280ED1DFF8AC060068C00309D5DFF80B
:101D6000A006006880036BD56068002868D1012058
:101D700004E26068B0F5803F08D1DFF884060068AF
:101D800050F48030DFF87816086038E0606800288A
:101D900010D1DFF86C06006830F48030DFF8601690
:101DA0000860DFF85C06006830F48020DFF8501629
:101DB000086024E06068B0F5A02F10D1DFF840067D
:101DC000006850F48020DFF838160860DFF830062D
:101DD000006850F48030DFF8281608600FE0DFF864
:101DE0002006006830F48030DFF814160860DFF851
:101DF0001006006830F48020DFF804160860606880
:101E000000280ED000F00BFF0500DFF8F405006895
:101E1000800315D400F003FF401B6528F5D3032091
:101E2000ACE100F0FCFE0500DFF8D405006880039B
:101E300006D500F0F4FE401B6528F5D303209DE194
:101E4000207880075CD5DFF8BC05006810F00C0F27
:101E50000BD0DFF8B005006810F00C0008281AD18C
:101E6000DFF8A0050068C00315D4DFF8940500680A
:101E7000800704D52069012801D001207EE1DFF828
:101E80008005006830F0F800616950EAC100DFF8B1
:101E90007015086034E0206900281ED00120DFF8AA
:101EA0007415086000F0BBFE0500DFF854050068FB
:101EB000800706D400F0B3FE401B0328F5D30320AF
:101EC0005CE1DFF83C05006830F0F800616950EA39
:101ED000C100DFF82C15086012E00020DFF834158F
:101EE000086000F09CFE0500DFF81405006880071C
:101EF00006D500F094FE401B0328F5D303203DE1F6
:101F0000207800072CD5A069002816D00120DFF822
:101F10000815086000F083FE0500DFF8F40400688F
:101F2000800706D400F07BFE401B0328F5D3032076
:101F300024E1012000F050FA12E00020DFF8D8146C
:101F4000086000F06CFE0500DFF8C404006880073C
:101F500006D500F064FE401B0328F5D303200DE1F5
:101F60002078400740F1A7800026DFF8B004006821
:101F7000C00010D4DFF8A404006850F08050DFF8EF
:101F80009C140860DFF89404006810F08050009002
:101F9000009801210E00DFF888040068C00516D4FF
:101FA000DFF87C04006850F48070DFF87414086077
:101FB00000F035FE0500DFF868040068C00506D4AF
:101FC00000F02DFE401B6528F5D30320D6E0E06825
:101FD000012808D1DFF84C04006850F00100DFF858
:101FE0004414086037E0E068002810D1DFF83404BA
:101FF000006840084000DFF82C140860DFF8240473
:10200000006830F00400DFF81C14086023E0E0688A
:10201000052810D1DFF80C04006850F00400DFF848
:1020200004140860DFF8FC03006850F00100DFF8DA
:10203000F41308600FE0DFF8EC030068400840008C
:10204000DFF8E0130860DFF8DC03006830F004001C
:10205000DFF8D0130860E068002810D000F0DFFD42
:102060000500DFF8C0030068800719D400F0D7FD31
:10207000401B41F289318842F3D303207EE000F017
:10208000CEFD0500DFF89C030068800708D500F04E
:10209000C6FD401B41F289318842F3D303206DE035
:1020A000F6B2012E07D1DFF87403006830F08050DB
:1020B000DFF868130860E06900285ED0DFF84403A9
:1020C000006810F00C00082855D0E06902283FD1C4
:1020D0000020DFF85413086000F0A1FD0500DFF8D0
:1020E00020030068800106D500F099FD401B0328FD
:1020F000F5D3032042E0206AB0F5803F09D1DFF834
:102100000403006830F40030A1680843DFF8F412DB
:102110000860DFF8F002006830F47410216A0843A8
:10212000616A0843DFF8DC1208600120DFF8F8126A
:10213000086000F074FD0500DFF8C402006880014B
:102140001BD400F06CFD401B0328F5D3032015E0E1
:102150000020DFF8D412086000F061FD0500DFF810
:10216000A0020068800108D500F059FD401B03283B
:10217000F5D3032002E0012000E0002076BD70B519
:1021800004000D000026DFF8A402006810F007002C
:10219000A84211D2DFF894020068C008C0002843AA
:1021A000DFF888120860DFF88402006810F007008A
:1021B000A84201D00120B9E0207880071FD52078FF
:1021C000400707D5DFF83C02006850F4E060DFF814
:1021D000341208602078000707D5DFF8280200686D
:1021E00050F46050DFF81C120860DFF81802006835
:1021F00030F0F000A1680843DFF80812086020788A
:10220000C00758D56068012806D1DFF8F4010068DE
:10221000800312D4012089E06068022806D1DFF82B
:10222000E0010068800108D401207FE0DFF8D001E0
:102230000068800701D4012078E0DFF8C801006859
:1022400080088000616808436E49086000F0E7FC80
:102250000600606801280ED16A48006810F00C0082
:10226000042828D000F0DBFC801B41F28931884231
:10227000F2D303205AE0606802280ED1614800685A
:1022800010F00C00082816D000F0C9FC801B41F2A9
:1022900089318842F2D3032048E05A48006810F0A0
:1022A0000C0F08D000F0BBFC801B41F28931884242
:1022B000F3D303203AE05D48006810F00700854240
:1022C0000ED25A480068C008C00028435749086029
:1022D0005648006810F00700A84201D0012025E010
:1022E0002078400707D54748006830F4E060E1688F
:1022F0000843444908602078000708D54148006831
:1023000030F46050216950EAC1003E49086000F095
:102310000EF847493B4A1268C2F30312515CC840A9
:102320003A490860002000F052FC002070BD70B5F2
:1023300086B001A83F49102200F0A0FC3E4800886A
:10234000ADF80000002100220023002400202D4DC4
:102350002D68290011F00C05042D02D0082D03D0A2
:102360001DE0294D28001CE001ADC1F38346755DD9
:102370002C00CD030DD500AD224E3668C6F3404685
:10238000755D2A00204D05FB04F5B5FBF2F52B0029
:1023900003E02A4D05FB04F52B00180001E01A4D5F
:1023A000280006B070BD19480068704780B5FFF777
:1023B000FAFF2349134A1268C2F30222515CC84053
:1023C00002BD80B5FFF7EFFF1D490E4A1268C2F348
:1023D000C222515CC84002BD81B00C490968C908DD
:1023E0004FF47A72B1FBF2F101FB00F1009100BFF2
:1023F00000994A1E00920029F9D101B070470000EF
:10240000001002400410024000127A000400002074
:102410002410024000004242800442421C1002404C
:102420000070004020100240600042420020024044
:10243000A435000894350008D22C000800093D009E
:10244000D0350008002200F045BC10B450F8041B41
:1024500081B102681218001D50F8043BDC0744BF2C
:10246000A9F10104E31852F8044B43F8044B091F87
:10247000F9D1EBE710BC70472DE9F84300230024A5
:10248000002500265FF0000E5FF0000C6246102A67
:1024900080F04D815FF0010C1CFA02FC6346D1F81C
:1024A00000C013EA0C0C64469C4240F03E81D1F817
:1024B00004C0BCF1000F3DD0BCF1010F24D0BCF131
:1024C000020F2BD0BCF1030F4CD0BCF1110F1FD069
:1024D000BCF1120F28D0DFF87082C4452AD0DFF893
:1024E0006C82C44526D0DFF86882C44522D0DFF86C
:1024F0006482C4451ED0DFF86082C4451AD0DFF87C
:102500005C82C44516D031E0D1F80CC066462DE09F
:10251000D1F80CC01CF1040C664627E0D1F80CC0C1
:102520001CF1080C664621E0D1F80CC01CF10C0C23
:1025300066461BE0D1F808C0BCF1000F03D15FF084
:10254000040C66460DE0D1F808C0BCF1010F04D1BF
:102550005FF0080C6646036103E05FF0080C664616
:10256000436103E05FF0000C6646FFE7FF2C01D8F3
:10257000070000E0071DFF2C02D85FEA820E03E08F
:10258000B2F1080C5FEA8C0ED7F800C05FF00F08BC
:1025900018FA0EF83CEA080C16FA0EF858EA0C0C79
:1025A000C7F800C0D1F804C05FEACC0C40F1BD8090
:1025B000DFF8ACC1DCF800C05CF0010CDFF8A081F2
:1025C000C8F800C0DFF898C1DCF800C01CF00108B2
:1025D000CDF80080DDF800C0DFF888815FEA92095D
:1025E00058F8298045465FF00F0812F003095FFA9A
:1025F00089F95FEA890918FA09F835EA0805DFF868
:102600006881404502D15FF0000C16E0DFF85CC144
:10261000604502D15FF0010C0FE0DFF854C1604566
:1026200002D15FF0020C08E0DFF848C1604502D13A
:102630005FF0030C01E05FF0040C12F003085FFA96
:1026400088F85FEA88081CFA08FC5CEA0505DFF8F0
:1026500014C15FEA92084CF82850D1F804C05FEA30
:10266000CC3C0AD5DFF810C1DCF800C054EA0C0CF1
:10267000DFF80481C8F800C009E0DFF8FCC0DCF82E
:1026800000C03CEA040CDFF8F080C8F800C0D1F8C4
:1026900004C05FEA8C3C0AD5DFF8E0C0DCF800C07B
:1026A00054EA0C0CDFF8D480C8F800C009E0DFF869
:1026B000CCC0DCF800C03CEA040CDFF8C080C8F8ED
:1026C00000C0D1F804C05FEACC2C0AD5DFF8B0C056
:1026D000DCF800C054EA0C0CDFF8A480C8F800C095
:1026E00009E0DFF89CC0DCF800C03CEA040CDFF82D
:1026F0009080C8F800C0D1F804C05FEA8C2C0AD5DD
:10270000DFF880C0DCF800C054EA0C0CDFF87480FD
:10271000C8F800C009E0DFF86CC0DCF800C03CEA93
:10272000040CDFF86080C8F800C0521CAFE6BDE8BA
:10273000F183D2B2002A02D089B2016102E089B2EB
:102740000B0403617047000000001110000012101C
:102750000000211000002210000031100000321093
:10276000181002400800014000080140000C014020
:102770000010014000140140000401400404014025
:10278000080401400C04014038B5A6480088A5495A
:10279000498811EB002400F009FA00F04DF800F030
:1027A000F0F800F0CFF800F07AF800F0A7F800F0A9
:1027B000ABFA00F00DFC002500200500FF2D05DC24
:1027C0009949280000F01EFC6D1CF7E70020050069
:1027D000FF2D08DC280000F03AFC9349884200D025
:1027E000FEE76D1CF4E74FF4FA7000F01BFA642367
:1027F000042200A97F2000F01DFB002202218B484B
:10280000FFF797FF00224FF400518948FFF791FF2F
:102810004FF4FA7000F006FA01224FF40051844898
:10282000FFF787FF012202218048FFF782FF4FF464
:10283000FA7000F0F7F9D6E700B58FB005A82821A7
:10284000FFF700FE00A81421FFF7FCFD0220059011
:102850000120099010200A9002200C9000200D9079
:102860005FF460100E9005A8FFF75EFA002801D013
:1028700000F0ECF80F200090022001900020029060
:102880004FF48060039000200490022100A8FFF71D
:1028900076FC002801D000F0D9F80FB000BD80B55B
:1028A0006448654908604FF48270634948600020BD
:1028B0006149886000206049C86000205E49086165
:1028C00000205D4948615FF480205B4988611820E1
:1028D0005949C86100205849086200205649486299
:1028E0000020554988620A205349C862524800F0C6
:1028F000C5FB002801D000F0A9F801BD80B54F4804
:102900004F4908604FF496504D4948604FF480504D
:102910004B49886000204A49C8604FF480604849AC
:1029200008610C2046494861002045498861002023
:102930004349C8614248FEF769FB002801D000F016
:1029400085F801BD10B582B03E48006850F0010026
:102950003C4908603B48006810F001000090009C72
:10296000002200210E2000F0F1F80E2000F001F905
:10297000002200210F2000F0E9F80F2000F0F9F804
:1029800013BD70B586B001A81021FFF75BFD2E487E
:10299000006850F010002C4908602B48006810F0C7
:1029A00010000090009C2848006850F02000264944
:1029B00008602548006810F020000090009D224823
:1029C000006850F00400204908601F48006810F0BB
:1029D00004000090009E00224FF400511448FFF7BD
:1029E000A8FE00220A211148FFF7A3FE4FF4005071
:1029F000019001200290002003900220049001A980
:102A00000B48FFF739FD0A200190012002900020B9
:102A100003900220049001A90448FFF72DFD06B0A1
:102A200070BD0000DC340008674523010008014048
:102A300000100140003001400C000020003801402F
:102A4000EC0000201410024018100240704750F8AB
:102A5000041B61B150F8042BD30744BFA9F1010353
:102A60009A18002342F8043B091FFAD1EFE7704798
:102A700010F00702454B1B6819004FF6FF03194081
:102A8000434B53EA02231943404B196070473F48B8
:102A90000068C0F302207047012110F01F0291402E
:102AA0003C4A40B2430942F82310704710B440B288
:102AB000002808D50A01384B40B210F00F04E31883
:102AC00003F8042C03E00A01344B40B2C25410BC9A
:102AD000704770B4030013F00704D4F10706052E05
:102AE00001D3042001E0D4F10700261D072E01D2F6
:102AF000002500E0E51E012616FA00F0401E084001
:102B0000A8400121A940491E1140084370BC7047EC
:102B100010B50400601EB0F1807F01D301200EE0EB
:102B2000601E1F4908600F215FF0FF30FFF7BEFFF6
:102B300000201C49086007201B490860002010BDC8
:102B400010B504002000FFF793FF10BDF8B5040096
:102B50000D0016000027FFF79AFF0700320029003A
:102B60003800FFF7B6FF0100200040B2FFF79EFFDC
:102B7000F1BD10B50400200040B2FFF78DFF10BD7D
:102B800010B504002000FFF7C3FF10BD0CED00E0FE
:102B90000000FA0500E100E018ED00E000E400E0CC
:102BA00014E000E018E000E010E000E080B5264806
:102BB000006850F01000244908600320FFF7C0FFB0
:102BC000002000F004F8FEF7E1FD002002BD10B582
:102BD00004004FF47A701D490978B0FBF1F01C49EC
:102BE0000968B1FBF0F0FFF7CBFF002801D001200E
:102BF0000CE0102C09D2002221005FF0FF30FFF71B
:102C0000A5FF14480460002000E0012010BD124818
:102C100000680E49097808180F49086070470E4887
:102C20000068704770B50400FFF7F9FF0500260043
:102C300016F1010F02D0054800788619FFF7EFFF63
:102C4000401BB042FAD370BD0020024008000020B3
:102C500004000020000000206001002062B38B0708
:102C600008D0521E11F8013B00F8013B00F024800F
:102C70008B07F6D1830740F0208000BF103A07D3BE
:102C800030B4B1E83810103AA0E83810F9D230BCAE
:102C9000530724BFB1E80810A0E8081044BF51F85A
:102CA000043B40F8043BD20724BF31F8022B20F844
:102CB000022B44BF0B7803707047083A07D3B1E882
:102CC0000810083A40F8043B40F804CBF7D2530709
:102CD000E4E7010200B500BF1300964694461039A0
:102CE00028BFA0E80C50FAD85FEA417C28BF0CC08E
:102CF00048BF40F8042BC90728BF20F8022B48BF63
:102D000000F8012B00BD000038B5AA48AA490860A8
:102D10004FF49650A84948604FF48050A649886007
:102D20000020A549C8604FF48060A34908610C20C9
:102D3000A14948610020A049886100209E49C861DE
:102D40009D48FEF763F904009B480068C06850F096
:102D5000100099490968C860984D6D1C0922290026
:102D60009548FEF7D9F9E52000F01EF80028FAD0C2
:102D7000FA2000F019F80028FAD0E52000F014F845
:102D80000028FAD016208DF8000055208DF801009B
:102D90003223032200A9002000F0BFF8DC2000F05D
:102DA00003F80028FAD031BD10B50400824890F82D
:102DB0003900202801D0002016E0EA208049087060
:102DC0007F4844707E4800787D4949780818C043A0
:102DD0007B49887003227A497748FEF752F9002828
:102DE00001D0002000E0032010BD70B504000D00EC
:102DF000714890F83900202801D0002019E020788F
:102E000010F07F0020706D4E761C6B48FEF7DFF9E6
:102E1000092231006848FEF77FF96A4805700122EF
:102E200021006548FEF72DF9002801D0002000E0C0
:102E3000012070BD2DE9F8430400884615001E00EE
:102E400000275D4890F839002028FAD15B480470CB
:102E50002900C9B25948FFF7C8FF0028F8D05A48DE
:102E6000007858490978884206D2BE4204DB012026
:102E7000FFF7D8FE7F1CF2E7EDB2DFF850912A0091
:102E800049464046FFF7EAFE0021002200200200EA
:102E9000D2B2EDB2AA4205D24848D2B2105C411873
:102EA000521CF5E7C9B2C9434448EDB2285CC9B227
:102EB000884202D12800C0B200E00020BDE8F283C1
:102EC000F8B504000D003C4890F83900202801D0E6
:102ED000002021E0207850F080002070002600279C
:102EE00000200600F6B2EDB2AE4204D2F6B2305D7A
:102EF000C719761CF6E7FFB2F843EDB22855EDB2DC
:102F00006A1C92B221002C48FEF7BBF8002801D0C1
:102F1000002001E0681CC0B2F2BD2DE9F0470400BA
:102F20000D0016001F005FF00008234890F83900DC
:102F30002028FAD121480470F6B2B6F10109DFF871
:102F40008CA04A4629005046FFF788FE3100C9B2DE
:102F50001A48FFF7B5FF184890F83900202807D025
:102F6000474505DB0120FFF75DFE18F10108F2E798
:102F7000474501DA002000E00120BDE8F08781B07C
:102F80000D4800680068C00612D50B48406B006809
:102F90004068D0F109010C4A1170002100910649E6
:102FA0000968096800910449096849680091009915
:102FB00001B0704700380140EC00002050010020B3
:102FC0005C01002065010020640100205101002007
:102FD00000B585B000F0F7F80020019024480068A3
:102FE00003902448006804900020009000A901A8E4
:102FF00000F082F900F0FAF84FF47A7000F009F965
:1030000005B000BD38B505000C00A8001A490968D4
:10301000184A12685143884218D200F0D4F84FF48D
:103020007A7000F0F6F8220000231148006810EBD7
:103030008501022000F068F84FF47A7000F0E9F89A
:1030400000F0D4F84FF47A7000F0E3F831BD0100DD
:103050008800094A1268074B1B685A43904204D201
:103060000348006850F8210000E00020704700008D
:1030700000100008081000080410000810B5040033
:10308000002C01D101203DE00020A06294F8510005
:10309000002805D1002084F850002000FEF79AFB9C
:1030A000022084F851002068006830F04000216858
:1030B00008606068A1680843E16808432169084323
:1030C00061690843A16911F400710843E16908438B
:1030D000216A0843A16A084321680860A069000CBE
:1030E00010F00400616A0843216848602068C069E4
:1030F00030F400602168C86100206065012084F818
:103100005100002010BD00002DE9F04782460E005E
:1031100014001D0001275FF000085FF00009DFF8D0
:10312000BC01007E012801D102204AE00120DFF825
:10313000AC1108764CF2503000F06BF80700FFB28B
:10314000002F38D1BAF1010F02D10120814607E0EA
:10315000BAF1020F02D10220814601E0042081462B
:10316000002080465FFA88F85FFA89F9C84522D2C4
:10317000200029005FFA88F85FEA081200F046F99B
:10318000010089B25FFA88F816EB480000F036F8C3
:103190004CF2503000F03DF80700DFF844010068C1
:1031A00040084000DFF838110860FFB2002F02D15C
:1031B00018F10108D6E70020DFF820110876380062
:1031C000C0B2BDE8F08700204549096809060BD563
:1031D0004549464A11604649444A116040490968D8
:1031E000090601D501210800C0B270473C480068BB
:1031F00050F080003A490860002070470022374BA9
:10320000DA61374A126852F00102354B1A600180C8
:10321000704738B50400FFF702FD0500314800682B
:10322000C0070BD514F1010FF8D0002C04D0FFF724
:10323000F6FC401B8442F1D2032017E029480068C5
:10324000800602D520202749086026480068C0066D
:1032500007D428480068C00703D422480068400704
:1032600003D500F004F8012000E0002032BD00206A
:103270001C490968C90607D51849C96951F00201F6
:10328000164AD16150F0100016490968490707D560
:103290001249C96951F00101104AD16150F004008E
:1032A00014490968C9070BD50C49C96951F00401D3
:1032B0000A4AD1610F490968490849000D4A11605D
:1032C00040F20111884206D10A49096849084900BB
:1032D000084A116001E0034908607047300100208E
:1032E000102002400C2002402301674504200240C8
:1032F000AB89EFCD1C200240F8B504000D0001267B
:103300000027DFF8FC00007E012801D102204EE0FA
:103310000120DFF8EC1008762068022816D14CF264
:103320005030FFF776FF00283BD1012000F040F835
:103330004CF25030FFF76DFF0600DFF8C800006860
:1033400030F00400DFF8BC1008602AE04CF2503086
:10335000FFF75FFF002824D15FF0FF302860A068EE
:103360000700E0684FF48061A26801FB00208742FB
:1033700017D2380000F031F84CF25030FFF749FF17
:103380000600DFF88000006830F00200DFF87410FB
:103390000860F6B2002E01D02F6002E017F58067BA
:1033A000DFE70020DFF8581008763000C0B2F2BD29
:1033B0000021DFF84C20D161DFF84810096851F096
:1033C0000401DFF840201160DFF83810096851F07F
:1033D0004001DFF83020116070470021084AD161B8
:1033E0000849096851F00201064A1160064908605F
:1033F0000449096851F04001024A11607047000019
:10340000300100201020024014200240D2B2203AA5
:1034100022BF21FA02F0002170472032D141D04072
:1034200048409140D1404840704700001348006830
:1034300050F0010011490860114800681149084026
:103440000F4908600D4800680F4908400B490860A3
:103450000A48006830F4802008490860084800687D
:1034600030F4FE00064908605FF41F000749086059
:103470005FF00060064908607047000000100240DD
:10348000041002400000FFF8FFFFF6FE08100240A3
:1034900008ED00E07047FEE7FEE7FEE7FEE7704755
:1034A0007047704780B5FFF7B2FB01BD80B5084893
:1034B000FEF75DFB01BD80B50648FEF758FB01BD78
:1034C00080B50548FDF7ABFEFFF759FD01BD0000D3
:1034D000A800002064000020EC0000200100020091
:1034E00000000000000000000000000000000000DC
:1034F00000000000000000000000000000000000CC
:103500000000000010B5074979441831064C7C448E
:10351000163404E00A68081D511888470146A14284
:10352000F8D110BD080000002800000023F5FFFFBF
:103530005C0100000C000020000000000FEFFFFF06
:103540000C0000003401000000000020000000001A
:1035500000F00BF8002801D0FFF7D4FF0020C04690
:10356000C046FFF711F900F002F80120704700F0A3
:1035700001B800000746384600F002F8FBE70000FB
:1035800080B5C046C046024A11001820ABBEFBE71A
:103590002600020002030405060708090A0B0C0DA9
:1035A0000E0F1010000000000000000001020304D4
:1035B0000607080901488047014800472D340008E4
:1035C000C5350008C046C046C046C046FFF7C0FF2C
:1035D0000000000001020304FFF7FEBFFFF7FEBF7B
:1035E000FFF7FEBFFFF7FEBFFFF7FEBFFFF7FEBF0F
:1035F000FFF7FEBFFFF7FEBFFFF7FEBFFFF7FEBFFF
:10360000FFF7FEBFFFF7FEBFFFF7FEBFFFF7FEBFEE
:10361000FFF7FEBFFFF7FEBFFFF7FEBFFFF7FEBFDE
:10362000FFF7FEBFFFF7FEBFFFF7FEBFFFF7FEBFCE
:10363000FFF7FEBFFFF7FEBFFFF7FEBFFFF7FEBFBE
:10364000FFF7FEBFFFF7FEBFFFF7FEBFFFF7FEBFAE
:10365000FFF7FEBFFFF7FEBFFFF7FEBFFFF7FEBF9E
:10366000FFF7FEBFFFF7FEBFFFF7FEBFFFF7FEBF8E
:10367000FFF7FEBFFFF7FEBF1000000000A24A04E4
:043680000100000045
:04000005080035C5F5
:00000001FF
