:020000040800F2
:100000004805002001010008B11800082917000860
:10001000AD18000891010008E5200008000000006C
:10002000000000000000000000000000E51B0008C8
:10003000E101000800000000ED180008E71B0008BF
:100040001B0100081B0100081B0100081B01000820
:100050001B0100081B0100081B0100081B01000810
:100060001B0100081B0100081B0100081B01000800
:100070001B0100081B01000895010008A5010008EC
:100080001B0100081B0100081B0100081B010008E0
:100090001B0100081B0100081B0100081B010008D0
:1000A0001B0100081B0100081B0100081B010008C0
:1000B0001B0100081B0100081B0100081B010008B0
:1000C0001B0100081B0100081B0100081B010008A0
:1000D0001B010008D12000081B0100081B010008BB
:1000E0001B0100081B0100081B010008DFF80CD0F1
:1000F00000F03CF8004800470921000848050020AE
:100100000648804706480047FEE7FEE7FEE7FEE7B1
:10011000FEE7FEE7FEE7FEE7FEE7FEE7511C00080C
:10012000ED00000840EA01039B0703D009E008C97D
:10013000121F08C0042AFAD203E011F8013B00F8AC
:10014000013B521EF9D27047D2B201E000F8012BF8
:10015000491EFBD270470022F6E710B513460A4647
:1001600004461946FFF7F0FF204610BD064C074D28
:1001700006E0E06840F0010394E807009847103477
:10018000AC42F6D3FFF7B6FFA8250008C825000843
:1001900000BFFEE710B5024800F09AF810BD00005D
:1001A0000001002010B5024800F092F810BD0000D8
:1001B000BC00002030B590F840500124AC40C56B25
:1001C0006C60046863604468102C04D10468A26009
:1001D0000468E16003E00468A1600468E26030BD87
:1001E00070477047014600200A68126822F00E022C
:1001F0000B681A600A68126822F001020B681A6024
:1002000091F8403001229A40CB6B5A60012281F86C
:10021000212000BF002281F8202000BF704700008D
:1002200070B50446002594F82100022803D004206C
:10023000A063012548E02068006820F00E002168D6
:1002400008602068006820F00100216808601F49EC
:100250002068884201D1012026E01C491431206821
:10026000884201D110201FE01849283120688842B7
:1002700001D1801518E015493C312068884201D130
:10028000801411E0114950312068884202D14FF4A6
:10029000803009E00D4964312068884202D14FF472
:1002A000801001E04FF08070084908394860012053
:1002B00084F8210000BF002084F8200000BF606B9C
:1002C00010B12046616B8847284670BD0800024087
:1002D00070B50446E06B05682068066894F8401025
:1002E000042088402840002846D006F0040000285A
:1002F00042D02068006800F0200028B9206800681B
:1003000020F004002168086057492068884201D124
:10031000042027E0544914312068884201D140204C
:1003200020E0514928312068884201D1001519E0A8
:100330004D493C312068884202D14FF4804011E0A1
:10034000494950312068884202D14FF4802009E0A9
:10035000454964312068884202D14FF4800001E0B1
:100360004FF08060404908394860E06A00287AD040
:100370002046E16A884776E094F8401002208840E1
:100380002840A0B306F0020088B32068006800F09F
:10039000200040B92068006820F00A002168086049
:1003A000012084F8210030492068884201D10220D0
:1003B00028E02D4914312068884201D1202021E015
:1003C000294928312068884201D140151AE0264980
:1003D0003C312068884202D14FF4005012E022499B
:1003E00050312068884203D14FF400300AE017E012
:1003F0001D4964312068884202D14FF4001001E0A9
:100400004FF0007018490839486000BF002084F898
:10041000200000BFA06A30B32046A16A884722E0CE
:1004200094F84010082088402840E0B106F0080009
:10043000C8B12068006820F00E002168086094F8B8
:10044000401001208840E16B48600120A06384F8DF
:10045000210000BF002084F8200000BF206B10B1F5
:100460002046216B884770BD0800024001460022EB
:1004700009B901207047164B0868C01A1423B0FB55
:10048000F3F08000086412480838C863022081F83D
:1004900021000868026843F6F0708243D1E9010345
:1004A0001843CB6818430B6918434B6918438B6991
:1004B0001843CB6918430243086802600020886330
:1004C000012081F82100002081F8200000BFD1E741
:1004D000080002402DE9F04104460D4616461F462D
:1004E0004FF0000800BF94F82000012802D102203C
:1004F000BDE8F081012084F8200000BF94F82100BD
:1005000001282CD1022084F821000020A06320685B
:10051000006820F00100216808603B463246294609
:100520002046FFF747FEE06A30B12068006840F0DF
:100530000E00216808600BE02068006820F00400CD
:10054000216808602068006840F00A00216808609F
:100550002068006840F001002168086006E000BFE4
:10056000002084F8200000BF4FF002084046BFE79B
:1005700070B5044600F0A4F906462546681C10B183
:1005800004480078054400BF00F09AF9801BA84297
:10059000FAD370BD100000202DE9F847034600246F
:1005A000002000258446002700226EE14FF001085C
:1005B00008FA02F4D1F8008008EA0400A0427DD1D4
:1005C000DFF8D0A2D1F80480A8EB0A09D0453AD0D0
:1005D00014DCB8F1030F50D009DCB8F1000F31D0B2
:1005E000B8F1010F1CD0B8F1020F49D120E0B8F1E9
:1005F000110F18D0B8F1120F42D11EE0B9F5881FC3
:1006000025D006DCB9F5803F20D0B9F5801F37D161
:100610001AE0B9F5001F18D0B9F5041F30D117E062
:10062000D1F80CC02DE0D1F80C8008F1040C28E0C2
:10063000D1F80C8008F1080C23E0D1F80C8008F107
:100640000C0C1EE000BF00BF00BF00BF00BF00BF1A
:10065000D1F80880B8F1000F02D14FF0040C0BE084
:10066000D1F80880B8F1010F03D14FF0080C1C61DC
:1006700002E04FF0080C5C6103E04FF0000C00E07A
:1006800000BF00BFFF2801D8984601E003F104082D
:100690004646FF2802D84FEA820803E0A2F1080884
:1006A0004FEA88084746D6F800804FF00F0909FA4C
:1006B00007F928EA09080CFA07F900E088E048EA97
:1006C0000908C6F80080D1F8048008F08058B8F115
:1006D000805F7DD100BFDFF8C081D8F8188048F076
:1006E0000108DFF8B491C9F81880C846D8F8188016
:1006F00008F00108CDF8008000BF00BF4FEAB9380C
:100700004FEA920958F829504FEA82784FEA18794F
:100710004FF00F0808FA09F825EA0805DFF87C8190
:10072000434502D14FF0000816E0DFF874814345DD
:1007300002D14FF001080FE0DFF86881434502D194
:100740004FF0020808E0DFF86081434502D14FF026
:10075000030801E04FF004084FEA82794FEA197963
:1007600008FA09F848EA0505DFF840814FEA9209DE
:1007700048F82950D1F8048008F48038B8F5803F53
:100780000AD1DFF82C81D8F8008048EA0008DFF8A9
:100790002091C9F8008009E0DFF81481D8F80080C2
:1007A00028EA0008DFF80891C9F80080D1F8048031
:1007B00008F40038B8F5003F10D1DFF8F48008F1F4
:1007C0000408D8F8008048EA0008DFF8E49000E068
:1007D0005AE009F10409C9F800800DE0DFF8D08083
:1007E00008F10408D8F8008028EA0008DFF8C09073
:1007F00009F10409C9F80080D1F8048008F48018D0
:10080000B8F5801F0ED1DFF8A88008F10808D8F8E5
:10081000008048EA0008DFF8989009F10809C9F853
:1008200000800DE0DFF8888008F10808D8F8008023
:1008300028EA0008DFF8789009F10809C9F8008073
:10084000D1F8048008F40018B8F5001F0ED1DFF8C5
:10085000608008F10C08D8F8008048EA0008DFF84A
:10086000509009F10C09C9F800800DE0DFF84080D4
:1008700008F10C08D8F8008028EA0008DFF830906A
:1008800009F10C09C9F80080521C102AFFF48EAE41
:10089000BDE8F88700001110001002400008014078
:1008A000000C01400010014000140140080001400C
:1008B000000401400AB1016101E00B0403617047CB
:1008C00001480068704700000800002003480068E5
:1008D000034909780844014908607047080000206E
:1008E0001000002010B50848006840F010000649CC
:1008F0000860032000F0A6F8002000F007F800F0E0
:100900002BF8002010BD00000020024070B5044606
:100910000E4800784FF47A71B1FBF0F00C49096889
:10092000B1FBF0F5284600F09FFC08B1012070BD36
:10093000102C07D200222146501E00F044F8054832
:10094000046001E00120F2E70020F0E71000002041
:10095000140000200C00002008B500BF1148806979
:1009600040F001000F4988610846806900F00100ED
:10097000009000BF00BF00BF0846C06940F0805033
:10098000C8610846C06900F08050009000BF00BFF9
:1009900000BF0549486820F0E06040F00070486002
:1009A00000BF08BD001002400000014000BF00F081
:1009B0001F02012191404209920002F1E022C2F897
:1009C000001100BF70472DE9F05F80460D461646C6
:1009D000002700F06FFF074639462A46334601F0EC
:1009E0000700C0F1070ABAF1040F02D94FF0040A58
:1009F00001E0C0F1070AD14600F1040ABAF1070F7D
:100A000002D24FF0000A01E0A0F1030AD4464FF0F1
:100A1000010A0AFA09FAAAF1010A0AEA020A0AFA1A
:100A20000CFA4FF0010B0BFA0CFBABF1010B0BEACC
:100A3000030B4AEA0B042146404600F043FFBDE8A1
:100A4000F09F000000BF00F00702064B19684FF648
:100A5000FF031940044B0B4343EA0221014B196089
:100A600000BF70470CED00E00000FA0570B50446C9
:100A70000D4600266D48006800F00700A8420ED21F
:100A80006A48006820F00700284368490860084663
:100A9000006800F00700A84201D0012070BD207856
:100AA00000F0020002281DD1207800F00400042884
:100AB00005D15F48406840F4E0605D4948602078B7
:100AC00000F00800082805D15948406840F46050FB
:100AD000574948605648406820F0F000A168084334
:100AE00053494860207800F0010000285DD060681C
:100AF000012806D14E48006800F4003090B901206A
:100B0000CCE76068022806D14948006800F0007010
:100B100040B90120C2E74648006800F0020008B969
:100B20000120BBE74248406820F0030061680843A9
:100B30003F494860FFF7C4FE06466068012810D1AF
:100B400008E0FFF7BDFE801B41F28831884201D9E1
:100B50000320A3E73648406800F00C000428F0D1D9
:100B600023E06068022810D108E0FFF7A9FE801B8F
:100B700041F28831884201D903208FE72C48406830
:100B800000F00C000828F0D10FE008E0FFF798FE15
:100B9000801B41F28831884201D903207EE7244836
:100BA000406800F00C000028F0D12048006800F0F8
:100BB0000700A8420ED91D48006820F0070028430E
:100BC0001A4908600846006800F00700A84201D0F2
:100BD000012063E7207800F00400042807D11448BE
:100BE000406820F4E060E1680843114948602078DB
:100BF00000F00800082808D10D48406820F4605033
:100C0000216940EAC1000A49486000F03DF80849FE
:100C10004968C1F30311074A515CC840064908609E
:100C20000020FFF773FE002038E70000002002409C
:100C300000100240902500081400002001480068C0
:100C4000704700001400002000B5FFF7F7FF0449CB
:100C50004968C1F30221034A515CC84000BD00004D
:100C600000100240A025000800B5FFF7E7FF044987
:100C70004968C1F3C221034A515CC84000BD00006D
:100C800000100240A0250008F0B585B00FF26C0CF2
:100C90009CE8E01001A8A0E8E0101CA52D680095D4
:100CA00000210022002300240020194D696801F072
:100CB0000C05F5B1042D02D0082D19D101E015481D
:100CC00019E001ADC1F38346AC5D01F4803555B147
:100CD0000F4D6D68C5F340451DF805200D4D65436A
:100CE000B5FBF2F302E00C4D04FB05F3184602E0FD
:100CF00000BF084800BF00BF05B0F0BD02030405F7
:100D0000060708090A0B0C0D0E0F10100102000057
:100D10000010024000127A0000093D00F8B50446B8
:100D20000025207800F00100002878D0F8484068BD
:100D300000F00C0004280CD0F548406800F00C00CE
:100D4000082811D1F248406800F48030B0F5803FA7
:100D50000AD1EF48006800F4003000285FD06068D6
:100D600000285CD10120F8BD00BF6068B0F5803F6D
:100D700006D1E748006840F48030E549086028E083
:100D8000606858B9E248006820F48030E0490860A3
:100D90000846006820F4802008601AE06068B0F51A
:100DA000A02F0BD1DA48006840F48020D8490860B1
:100DB0000846006840F4803008600AE0D4480068C3
:100DC00020F48030D24908600846006820F4802072
:100DD000086000BF606888B1FFF772FD054606E055
:100DE000FFF76EFD401B642801D90320BBE7C8480C
:100DF000006800F400300028F2D010E0FFF760FD3A
:100E0000054606E0FFF75CFD401B642801D903207E
:100E1000A9E7BF48006800F400300028F2D120782C
:100E200000F00200022857D1B948406800F00C00D9
:100E300050B1B748406800F00C00082818D1B448F9
:100E4000406800F4803098B9B148006800F00200B2
:100E500020B12069012801D0012084E7AC48006856
:100E600020F0F800616940EAC100A949086033E058
:100E70002069E8B10120A7490860FFF721FD054678
:100E800006E0FFF71DFD401B022801D903206AE799
:100E90009F48006800F002000028F2D09C480068DB
:100EA00020F0F800616940EAC1009949086013E048
:100EB000002098490860FFF703FD054606E0FFF7AC
:100EC000FFFC401B022801D903204CE79048006832
:100ED00000F002000028F2D1207800F00800082875
:100EE0002DD1A069B8B101208B490860FFF7E8FC5B
:100EF000054606E0FFF7E4FC401B022801D9032069
:100F000031E78348406A00F002000028F2D0012057
:100F100000F0EEFC13E000207F490860FFF7D0FCF2
:100F2000054606E0FFF7CCFC401B022801D9032050
:100F300019E77748406A00F002000028F2D12078D3
:100F400000F00400042873D100267148C06900F045
:100F5000805070B900BF6E48C06940F080506C4945
:100F6000C8610846C06900F08050009000BF00BF13
:100F700001266A48006800F48070B0B967480068CC
:100F800040F4807065490860FFF79AFC054606E06A
:100F9000FFF796FC401B642801D90320E3E65F4875
:100FA000006800F480700028F2D000BFE0680128DB
:100FB00006D15748006A40F001005549086227E011
:100FC000E06858B95248006A20F0010050490862B0
:100FD0000846006A20F00400086219E0E06805286D
:100FE0000BD14B48006A40F00400494908620846AA
:100FF000006A40F0010008620AE04548006A20F0FB
:101000000100434908620846006A20F004000862B3
:1010100000BFE068A0B1FFF753FC054609E0FFF709
:101020004FFC401B41F28831884202D903209AE6E6
:1010300022E03748006A00F002000028EFD012E0FA
:10104000FFF73EFC054608E0FFF73AFC401B41F283
:101050008831884201D9032085E62D48006A00F0D6
:1010600002000028F0D1012E05D12948C06920F0E6
:1010700080502749C86100BFE069C8B32448406870
:1010800000F00C00082860D0E069022848D1002058
:1010900020490866FFF714FC054606E0FFF710FC40
:1010A000401B022801D903205DE61948006800F0C2
:1010B00000700028F2D1206AB0F5803F07D11448B3
:1010C000406820F40030A168084311494860D4E921
:1010D000080108430E49496821F4741108430C497A
:1010E000486001200B490866FFF7EAFB054607E068
:1010F0002DE0FFF7E5FB401B022801D9032032E673
:101100000348006800F000700028F2D01FE00000E3
:101110000010024000004242800442420070004041
:1011200000200C490866FFF7CBFB054606E0FFF7F9
:10113000C7FB401B022801D9032014E606480068BB
:1011400000F000700028F2D101E001200BE6002041
:1011500009E60000000042420010024010B50446BB
:101160000CB9012010BD0021A16294F8510028B9EA
:10117000002084F85000204600F034F8022084F863
:1011800051002068006820F0400021680860D4E920
:1011900001010843E1680843216908436169084384
:1011A000218B01F400710843E1690843216A084377
:1011B000A16A0843216808600421A06901EA10407F
:1011C000616A0843216848602068C06920F40060B3
:1011D0002168C86100206065012084F8510000206A
:1011E000C0E7000010B586B00446002002900390CE
:1011F000049005901949206888422DD100BF1848F5
:10120000806940F48050164988610846806900F47E
:101210008050019000BF00BF00BF0846806940F0C9
:10122000040088610846806900F00400019000BF56
:1012300000BFB0200290022003900320059002A975
:101240000848FFF7A9F9402002900020039004907D
:1012500002A90448FFF7A0F906B010BD0030014014
:10126000001002400008014070B504462546681E83
:10127000B0F1807F01D301200FE0681E4FF0E02124
:1012800048610F214FF0FF3000F01CFB00204FF0B1
:10129000E021886107200861002070BD10B5044678
:1012A0002068C06820F490702168C8602068406998
:1012B00020F00100216848612068406900F040008A
:1012C00068B12068406920F0400021684861606B87
:1012D00028B10020616B4863606BFEF783FF00203C
:1012E000E085202084F83A00002010BD70470000FF
:1012F0002DE9F0470446206805682068C668206824
:1013000047694FF00008C14605F00F08B8F1000F1B
:101310000AD105F0200038B106F0200020B12046A7
:1013200000F06AFDBDE8F087B8F1000F6DD007F05E
:10133000010018B906F49070002866D005F001008D
:1013400030B106F4807018B1E06B40F00100E0634A
:1013500005F0040030B107F0010018B1E06B40F077
:101360000200E06305F0020030B107F0010018B19F
:10137000E06B40F00400E06305F0080030B107F0D6
:10138000010018B1E06B40F00800E063E06B68B367
:1013900005F0200028B106F0200010B1204600F032
:1013A0002BFD20684069C0F38019E06B00F0080055
:1013B00010B9B9F1000F22D0204600F0F3FC2068EC
:1013C000406900F04000B0B12068406920F0400062
:1013D00021684861606B50B11748616B4863606B6E
:1013E000FEF71EFF10B1606B416B88470CE0204692
:1013F000FFF77CFF08E02046FFF778FF04E0204677
:10140000FFF774FF0020E0638CE705F0800030B147
:1014100006F0800018B1204600F026FE82E705F0B5
:10142000400030B106F0400018B1204600F0CAFC80
:1014300078E700BF76E70000A91C000810B5044655
:101440000CB9012010BDA06900B100E000BF94F804
:10145000390028B9002084F83800204600F028F828
:10146000242084F839002068C06820F400502168E6
:10147000C860204600F014FD2068006920F4904008
:10148000216808612068406920F02A0021684861CD
:101490002068C06840F400502168C8600020E06304
:1014A000202084F8390084F83A000020CAE70000C0
:1014B00010B586B004460020029003900490059079
:1014C0003949206888426CD100BF3848806940F4AF
:1014D0008040364988610846806900F48040019068
:1014E00000BF00BF00BF0846806940F0040088616B
:1014F0000846806900F00400019000BF00BF481555
:101500000290022003900320059002A92848FFF7CB
:1015100043F84FF48060029000200390049002A9E9
:101520002348FFF739F82348234908600020486022
:101530000021214881608021C16000210161416159
:10154000202181614FF44051C161FEF78FFF08B146
:10155000FEF747FE00BF18486063446200BF1548AD
:101560001438164908601020486000211348816033
:101570008021C1600021016141618161C161FEF78B
:1015800075FF08B1FEF72DFE00BF0C4820634462D2
:1015900000BF002211462520FFF715FA2520FFF78E
:1015A00005FA06B010BD00000038014000100240EE
:1015B0000008014058000240BC000020000100204B
:1015C00077B581B00446154694F83A00202850D1EA
:1015D000029800B115B9012004B070BD00BF94F8A5
:1015E0003800012801D10220F6E7012084F83800F4
:1015F00000BF0298A062A5850020E063222084F845
:101600003A001D48616B88621C48616BC8621C48C7
:10161000616B08630020616B486302AE3268236827
:10162000191D2B46606BFEF755FF00BF0020009090
:1016300020680068009020684068009000BF00BFEC
:1016400000BF002084F8380000BF2068C06840F464
:1016500080702168C8602068406940F001002168FE
:1016600048612068406940F04000216848610020DE
:10167000B2E70220B0E700000D1D0008531D00086E
:10168000BD1C000870477047F7B50446154694F82E
:10169000390020283DD1019800B10DB90120FEBDCF
:1016A00000BF94F83800012801D10220F7E701209B
:1016B00084F8380000BF01982062A584E5840020EA
:1016C000E063212084F839001348216B88621348B5
:1016D000216BC8621248216B08630020216B4863AC
:1016E00001AE23681A1D31682B46206BFEF7F2FE0F
:1016F0006FF040002168086000BF002084F83800C7
:1017000000BF2068406940F08000216848610020E7
:10171000C5E70220C3E70000611D0008971D00080F
:10172000BD1C00087047704700BFFEE708B500BF4A
:101730000E48406940F001000C4948610846406984
:1017400000F00100009000BF00BF002211460E20F3
:10175000FFF739F90E20FFF729F9002211460F2073
:10176000FFF731F90F20FFF721F908BD0010024003
:1017700000B585B00020019002900390049000BF56
:101780002648806940F01000244988610846806935
:1017900000F01000009000BF00BF00BF0846806945
:1017A00040F0200088610846806900F02000009029
:1017B00000BF00BF00BF0846806940F00400886198
:1017C0000846806900F00400009000BF00BF0022BE
:1017D0004FF400511248FFF76DF800220A2111481A
:1017E000FFF768F84FF400500190012002900020AC
:1017F00003900220049001A90948FEF7CDFE0A20BB
:10180000019001200290002003900220049001A981
:101810000448FEF7C1FE05B000BD00000010024004
:10182000001001400008014010B50E480E49086044
:101830004FF48270486000210B488160C1600161F3
:1018400041614FF4802181611821C1610021016251
:10185000416281620A21C162FFF780FC08B1FEF794
:10186000C0FC10BD003001402400002010B50D4820
:101870000D4908604FF4965048604FF480510A4873
:1018800081600021C1604FF4806101610C214161E0
:1018900000218161C161FFF7D1FD08B1FEF7A1FC14
:1018A00010BD0000003801407C00002000BFFEE7B2
:1018B0007047000002480068C0F302207047000033
:1018C0000CED00E010B5002807DA0A07140E054AEF
:1018D00000F00F031B1FD45403E00A07130E024A43
:1018E000135410BD18ED00E000E400E07047000064
:1018F00008B508490968C9084FF47A72B1FBF2F1DA
:101900004143009100BF00BF00994A1E0092002988
:10191000F9D108BD1400002010B504460D4890F818
:101920003900202801D0002010BDEA200A490870A3
:1019300008464470007849780844C04306498870D6
:1019400003220448FFF7A0FE08B10020ECE70320C3
:10195000EAE700007C0000200200002038B525489E
:10196000254908604FF4965048604FF48051224852
:1019700081600021C1604FF4806101610C214161EF
:1019800000218161C161FFF759FD1B480068C068F3
:1019900040F0100018490968C860184C641C0922FE
:1019A00021461548FFF70CFE00BFE520FFF7B4FF06
:1019B0000028FAD000BFFA20FFF7AEFF0028FAD0C7
:1019C00000BFE520FFF7A8FF0028FAD016208DF809
:1019D000000055208DF801003223032269460020C3
:1019E00000F0D0F800BFDC20FFF796FF0028FAD007
:1019F00038BD0000003801407C00002018000020A5
:101A000070B504460D46104890F83900202801D0E2
:101A1000002070BD207800F07F0020700B4E761CF7
:101A20000948FFF73BFC092231460748FFF7C8FD8C
:101A300007480570012221460348FFF725FE08B13B
:101A40000020E6E70120E4E77C00002018000020E9
:101A5000010000202DE9F0470746884614469946C4
:101A60004FF0000A00BF1C4890F839002028FAD136
:101A70001A48077000BF21461848FFF7C1FF002829
:101A8000F9D004E00120FEF773FD0AF1010A1448C1
:101A9000007814490978884201DACA45F2DD224605
:101AA0000E49491C4046FEF73DFB0025002600BFBD
:101AB00005E00A48805D2844C5B2701CC6B2A64243
:101AC000F7DBE843C5B20548005DA84202D12046D5
:101AD000BDE8F0870020FBE77C0000201800002014
:101AE000000000200100002008B50F4800680068D1
:101AF000C0F30010B0B10C49496B09684968C8B21D
:101B0000C0F10901094A117000BF00210091064986
:101B1000096809680091044909684968009100BF93
:101B200000BF00BF08BD00007C00002000000020B6
:101B30002DE9F04104460D46114890F8390020285F
:101B400002D00020BDE8F081207840F080002070B5
:101B50000027002600BF04E0E05D3044C6B2781CD8
:101B6000C7B2AF42F8DBF04360556A1C2146044817
:101B7000FFF78AFD08B10020E4E7681CC0B2E1E786
:101B80007C0000202DE9F0410746884614461D469A
:101B9000002600BF114890F839002028FAD11048DB
:101BA0000770621E4146401CFEF7BCFA21460C48F5
:101BB000FFF7BEFF03E00120FEF7DAFC761C0748C2
:101BC00090F83900202801D0AE42F4DDAE4202DDAB
:101BD0000020BDE8F0810120FBE700007C00002030
:101BE00018000020704710B5FEF770FE10BD00B55C
:101BF0008FB0282105A8FEF7AEFA14216846FEF73B
:101C0000AAFA022005900120099010200A900220D3
:101C10000C9000210D914FF460110E9105A8FFF773
:101C20007DF808B1FEF7DDFA0F2000900220019048
:101C3000002002904FF48060039000200490022165
:101C40006846FEF713FF08B1FEF7CBFA0FB000BDF0
:101C50001148006840F001000F49086008464068DC
:101C60000E4908400C494860084600680C49084085
:101C7000094908600846006820F48020086008468A
:101C8000406820F4FE0048604FF41F008860C803DD
:101C90000449086070470000001002400000FFF88F
:101CA000FFFFF6FE08ED00E070B505466C6A002007
:101CB000E085E0842046FFF719FB70BD70B506464D
:101CC0000025746A20684069C0F3C01594F8390093
:101CD000212805D125B10020E084204600F082F8BB
:101CE00020684069C0F3801594F83A00222805D195
:101CF00025B10020E085204600F054F8E06B40F06C
:101D00001000E0632046FFF7F1FA70BD70B505469C
:101D10006C6A2868006800F02000B0B90020E085F7
:101D20002068C06820F480702168C860206840691D
:101D300020F00100216848612068406920F04000DF
:101D400021684861202084F83A002046FFF79AFC79
:101D500070BD70B50446656A2846FFF794FC70BDF7
:101D600070B505466C6A2868006800F0200070B9FC
:101D70000020E0842068406920F0800021684861EC
:101D80002068C06840F040002168C86002E020463A
:101D9000FFF7C8FC70BD70B50446656A2846FFF7BA
:101DA000C2FC70BD0168C96821F490710268D160FD
:101DB0000168496921F0010102685161202180F820
:101DC0003A10704710B504462068C06820F0400003
:101DD0002168C860202084F839002046FFF7A2FC63
:101DE000002010BD0168C96821F0C0010268D160FF
:101DF000202180F83910704770B5044694F83A00F5
:101E000022284AD1A068B0F5805F13D1A56A206965
:101E100040B920684068C0F308002880A06A801C90
:101E2000A06219E020684068C0B22880A06A401C07
:101E3000A06211E0206938B920684068C1B2A26A86
:101E4000501CA062117007E02068406800F07F011C
:101E5000A26A501CA0621170E08D401E80B2E08525
:101E6000C8B92068C06820F020002168C8602068D8
:101E7000C06820F480702168C8602068406920F044
:101E8000010021684861202084F83A002046FFF7CD
:101E9000F9FB002070BD0020FCE70220FAE70000FB
:101EA0002DE9F041044600252068006920F44050E7
:101EB000E1680843216808612169A06808436169F5
:101EC000084305432068C06841F20C6188432843F9
:101ED0002168C8602068406920F44070A169084307
:101EE000216848615F49206888425CD1FEF7BCFEEA
:101EF00000EBC00101EB001061688900B0FBF1F656
:101F0000FEF7B2FE00EBC00101EB00106168890032
:101F1000B0FBF1F06421B0FBF1F000EBC00101EB8C
:101F20000010A6EB8000322101EB00106421B0FB11
:101F3000F1F000F0F006FEF797FE00EBC00101EBB8
:101F4000001061688900B0FBF1F06421B0FBF1F092
:101F500006EB0016FEF788FE00EBC00101EB001057
:101F600061688900B0FBF1F7FEF77EFE00EBC0016F
:101F700001EB001061688900B0FBF1F06421B0FB57
:101F8000F1F000EBC00101EB0010A7EB8000322163
:101F900001EB00106421B0FBF1F000F00F003044C1
:101FA000216888605BE0FEF74FFE00EBC00101EBAB
:101FB000001061688900B0FBF1F6FEF745FE00EB0A
:101FC000C00101EB001061688900B0FBF1F06421F1
:101FD000B0FBF1F000EBC00101EB0010A6EB8000BC
:101FE000322101EB00106421B0FBF1F000F0F006AB
:101FF000FEF72AFE00EBC00101EB001061688900CA
:10200000B0FBF1F06421B0FBF1F006EB0016FEF737
:102010001BFE00EBC00101EB001061688900B0FB02
:10202000F1F7FEF711FE00EBC00101EB0010616853
:102030008900B0FBF1F06421B0FBF1F000EBC001CE
:1020400001EB0010A7EB8000322101EB00106421AE
:10205000B0FBF1F000F00F00304421688860BDE86B
:10206000F081000000380140014691F83900212834
:102070002CD18868B0F5805F0FD10A6A1088C0F350
:1020800008000B685860086918B9086A801C086263
:1020900009E0086A401C086205E00B6A581C0862E7
:1020A00018780B685860C88C401E80B2C88458B934
:1020B0000868C06820F080000B68D8600868C068B5
:1020C00040F040000B68D860002070470220FCE719
:1020D00010B50348FFF70CF9FFF706FD10BD00002F
:1020E0007C00002000BFFEE702E008C8121F08C104
:1020F000002AFAD170477047002001E001C1121F89
:10210000002AFBD17047000008B500BFFEF7EAFBCC
:10211000FFF76DFDFFF72CFBFFF708FBFFF784FBD4
:10212000FFF7A4FBFFF71AFC2AE04FF4FA70FEF762
:102130001FFA1448006800906423042269467F2037
:10214000FFF788FC002202210F48FEF7B3FB0022B4
:102150004FF400510D48FEF7ADFB4FF4FA70FEF757
:1021600007FA012251030948FEF7A4FB01220221CC
:102170000548FEF79FFB4FF4FA70FEF7F9F900BF30
:10218000D3E7000090210008000801400010014042
:102190000001020304050607000000000000000023
:1021A000000000000000000000000000000000002F
:1021B000000000000000000000000000000000001F
:1021C000000000000000000000000000000000000F
:1021D00000000000000000000000000000000000FF
:102590000000000000000000010203040607080913
:1025A0000000000001020304C8250008000000200C
:1025B00018000000E8200008E025000818000020AE
:0825C00030050000F8200008BE
:020000042000DA
:1000000000000000000000000000000010000000E0
:080010000100000000A24A04F7
:04000005080000ED02
:00000001FF
